{
  "contractName": "RentableMonkey",
  "abi": [
    {
      "inputs": [],
      "stateMutability": "nonpayable",
      "type": "constructor"
    },
    {
      "anonymous": false,
      "inputs": [
        {
          "indexed": true,
          "internalType": "address",
          "name": "owner",
          "type": "address"
        },
        {
          "indexed": true,
          "internalType": "address",
          "name": "approved",
          "type": "address"
        },
        {
          "indexed": true,
          "internalType": "uint256",
          "name": "tokenId",
          "type": "uint256"
        }
      ],
      "name": "Approval",
      "type": "event"
    },
    {
      "anonymous": false,
      "inputs": [
        {
          "indexed": true,
          "internalType": "address",
          "name": "owner",
          "type": "address"
        },
        {
          "indexed": true,
          "internalType": "address",
          "name": "operator",
          "type": "address"
        },
        {
          "indexed": false,
          "internalType": "bool",
          "name": "approved",
          "type": "bool"
        }
      ],
      "name": "ApprovalForAll",
      "type": "event"
    },
    {
      "anonymous": false,
      "inputs": [
        {
          "indexed": true,
          "internalType": "address",
          "name": "from",
          "type": "address"
        },
        {
          "indexed": true,
          "internalType": "address",
          "name": "to",
          "type": "address"
        },
        {
          "indexed": true,
          "internalType": "uint256",
          "name": "tokenId",
          "type": "uint256"
        }
      ],
      "name": "Transfer",
      "type": "event"
    },
    {
      "anonymous": false,
      "inputs": [
        {
          "indexed": true,
          "internalType": "uint256",
          "name": "tokenId",
          "type": "uint256"
        },
        {
          "indexed": true,
          "internalType": "address",
          "name": "user",
          "type": "address"
        },
        {
          "indexed": false,
          "internalType": "uint64",
          "name": "expires",
          "type": "uint64"
        }
      ],
      "name": "UpdateUser",
      "type": "event"
    },
    {
      "inputs": [
        {
          "internalType": "address",
          "name": "to",
          "type": "address"
        },
        {
          "internalType": "uint256",
          "name": "tokenId",
          "type": "uint256"
        }
      ],
      "name": "approve",
      "outputs": [],
      "stateMutability": "nonpayable",
      "type": "function"
    },
    {
      "inputs": [
        {
          "internalType": "address",
          "name": "owner",
          "type": "address"
        }
      ],
      "name": "balanceOf",
      "outputs": [
        {
          "internalType": "uint256",
          "name": "",
          "type": "uint256"
        }
      ],
      "stateMutability": "view",
      "type": "function",
      "constant": true
    },
    {
      "inputs": [
        {
          "internalType": "uint256",
          "name": "tokenId",
          "type": "uint256"
        }
      ],
      "name": "getApproved",
      "outputs": [
        {
          "internalType": "address",
          "name": "",
          "type": "address"
        }
      ],
      "stateMutability": "view",
      "type": "function",
      "constant": true
    },
    {
      "inputs": [
        {
          "internalType": "address",
          "name": "owner",
          "type": "address"
        },
        {
          "internalType": "address",
          "name": "operator",
          "type": "address"
        }
      ],
      "name": "isApprovedForAll",
      "outputs": [
        {
          "internalType": "bool",
          "name": "",
          "type": "bool"
        }
      ],
      "stateMutability": "view",
      "type": "function",
      "constant": true
    },
    {
      "inputs": [],
      "name": "name",
      "outputs": [
        {
          "internalType": "string",
          "name": "",
          "type": "string"
        }
      ],
      "stateMutability": "view",
      "type": "function",
      "constant": true
    },
    {
      "inputs": [
        {
          "internalType": "uint256",
          "name": "tokenId",
          "type": "uint256"
        }
      ],
      "name": "ownerOf",
      "outputs": [
        {
          "internalType": "address",
          "name": "",
          "type": "address"
        }
      ],
      "stateMutability": "view",
      "type": "function",
      "constant": true
    },
    {
      "inputs": [
        {
          "internalType": "address",
          "name": "from",
          "type": "address"
        },
        {
          "internalType": "address",
          "name": "to",
          "type": "address"
        },
        {
          "internalType": "uint256",
          "name": "tokenId",
          "type": "uint256"
        }
      ],
      "name": "safeTransferFrom",
      "outputs": [],
      "stateMutability": "nonpayable",
      "type": "function"
    },
    {
      "inputs": [
        {
          "internalType": "address",
          "name": "from",
          "type": "address"
        },
        {
          "internalType": "address",
          "name": "to",
          "type": "address"
        },
        {
          "internalType": "uint256",
          "name": "tokenId",
          "type": "uint256"
        },
        {
          "internalType": "bytes",
          "name": "data",
          "type": "bytes"
        }
      ],
      "name": "safeTransferFrom",
      "outputs": [],
      "stateMutability": "nonpayable",
      "type": "function"
    },
    {
      "inputs": [
        {
          "internalType": "address",
          "name": "operator",
          "type": "address"
        },
        {
          "internalType": "bool",
          "name": "approved",
          "type": "bool"
        }
      ],
      "name": "setApprovalForAll",
      "outputs": [],
      "stateMutability": "nonpayable",
      "type": "function"
    },
    {
      "inputs": [
        {
          "internalType": "uint256",
          "name": "tokenId",
          "type": "uint256"
        },
        {
          "internalType": "address",
          "name": "user",
          "type": "address"
        },
        {
          "internalType": "uint64",
          "name": "expires",
          "type": "uint64"
        }
      ],
      "name": "setUser",
      "outputs": [],
      "stateMutability": "nonpayable",
      "type": "function"
    },
    {
      "inputs": [
        {
          "internalType": "bytes4",
          "name": "interfaceId",
          "type": "bytes4"
        }
      ],
      "name": "supportsInterface",
      "outputs": [
        {
          "internalType": "bool",
          "name": "",
          "type": "bool"
        }
      ],
      "stateMutability": "view",
      "type": "function",
      "constant": true
    },
    {
      "inputs": [],
      "name": "symbol",
      "outputs": [
        {
          "internalType": "string",
          "name": "",
          "type": "string"
        }
      ],
      "stateMutability": "view",
      "type": "function",
      "constant": true
    },
    {
      "inputs": [
        {
          "internalType": "uint256",
          "name": "tokenId",
          "type": "uint256"
        }
      ],
      "name": "tokenURI",
      "outputs": [
        {
          "internalType": "string",
          "name": "",
          "type": "string"
        }
      ],
      "stateMutability": "view",
      "type": "function",
      "constant": true
    },
    {
      "inputs": [
        {
          "internalType": "address",
          "name": "from",
          "type": "address"
        },
        {
          "internalType": "address",
          "name": "to",
          "type": "address"
        },
        {
          "internalType": "uint256",
          "name": "tokenId",
          "type": "uint256"
        }
      ],
      "name": "transferFrom",
      "outputs": [],
      "stateMutability": "nonpayable",
      "type": "function"
    },
    {
      "inputs": [
        {
          "internalType": "uint256",
          "name": "tokenId",
          "type": "uint256"
        }
      ],
      "name": "userExpires",
      "outputs": [
        {
          "internalType": "uint256",
          "name": "",
          "type": "uint256"
        }
      ],
      "stateMutability": "view",
      "type": "function",
      "constant": true
    },
    {
      "inputs": [
        {
          "internalType": "uint256",
          "name": "tokenId",
          "type": "uint256"
        }
      ],
      "name": "userOf",
      "outputs": [
        {
          "internalType": "address",
          "name": "",
          "type": "address"
        }
      ],
      "stateMutability": "view",
      "type": "function",
      "constant": true
    },
    {
      "inputs": [
        {
          "internalType": "string",
          "name": "_tokenURI",
          "type": "string"
        }
      ],
      "name": "mint",
      "outputs": [],
      "stateMutability": "nonpayable",
      "type": "function"
    },
    {
      "inputs": [
        {
          "internalType": "uint256",
          "name": "tokenId",
          "type": "uint256"
        }
      ],
      "name": "burn",
      "outputs": [],
      "stateMutability": "nonpayable",
      "type": "function"
    }
  ],
  "bytecode": "0x60806040523480156200001157600080fd5b506040518060400160405280600e81526020017f52656e7461626c654d6f6e6b65790000000000000000000000000000000000008152506040518060400160405280600281526020017f524d0000000000000000000000000000000000000000000000000000000000008152508181816000908162000091919062000328565b508060019081620000a3919062000328565b50505050506200040f565b600081519050919050565b7f4e487b7100000000000000000000000000000000000000000000000000000000600052604160045260246000fd5b7f4e487b7100000000000000000000000000000000000000000000000000000000600052602260045260246000fd5b600060028204905060018216806200013057607f821691505b602082108103620001465762000145620000e8565b5b50919050565b60008190508160005260206000209050919050565b60006020601f8301049050919050565b600082821b905092915050565b600060088302620001b07fffffffffffffffffffffffffffffffffffffffffffffffffffffffffffffffff8262000171565b620001bc868362000171565b95508019841693508086168417925050509392505050565b6000819050919050565b6000819050919050565b60006200020962000203620001fd84620001d4565b620001de565b620001d4565b9050919050565b6000819050919050565b6200022583620001e8565b6200023d620002348262000210565b8484546200017e565b825550505050565b600090565b6200025462000245565b620002618184846200021a565b505050565b5b8181101562000289576200027d6000826200024a565b60018101905062000267565b5050565b601f821115620002d857620002a2816200014c565b620002ad8462000161565b81016020851015620002bd578190505b620002d5620002cc8562000161565b83018262000266565b50505b505050565b600082821c905092915050565b6000620002fd60001984600802620002dd565b1980831691505092915050565b6000620003188383620002ea565b9150826002028217905092915050565b6200033382620000ae565b67ffffffffffffffff8111156200034f576200034e620000b9565b5b6200035b825462000117565b620003688282856200028d565b600060209050601f831160018114620003a057600084156200038b578287015190505b6200039785826200030a565b86555062000407565b601f198416620003b0866200014c565b60005b82811015620003da57848901518255600182019150602085019450602081019050620003b3565b86831015620003fa5784890151620003f6601f891682620002ea565b8355505b6001600288020188555050505b505050505050565b6134a7806200041f6000396000f3fe608060405234801561001057600080fd5b50600436106101165760003560e01c80638fc88c48116100a2578063c2f1f14a11610071578063c2f1f14a146102ef578063c87b56dd1461031f578063d85d3d271461034f578063e030565e1461036b578063e985e9c51461038757610116565b80638fc88c481461026957806395d89b4114610299578063a22cb465146102b7578063b88d4fde146102d357610116565b806323b872dd116100e957806323b872dd146101b557806342842e0e146101d157806342966c68146101ed5780636352211e1461020957806370a082311461023957610116565b806301ffc9a71461011b57806306fdde031461014b578063081812fc14610169578063095ea7b314610199575b600080fd5b61013560048036038101906101309190612142565b6103b7565b604051610142919061218a565b60405180910390f35b610153610431565b604051610160919061223e565b60405180910390f35b610183600480360381019061017e9190612296565b6104c3565b6040516101909190612304565b60405180910390f35b6101b360048036038101906101ae919061234b565b610509565b005b6101cf60048036038101906101ca919061238b565b610620565b005b6101eb60048036038101906101e6919061238b565b610680565b005b61020760048036038101906102029190612296565b6106a0565b005b610223600480360381019061021e9190612296565b6106ac565b6040516102309190612304565b60405180910390f35b610253600480360381019061024e91906123de565b610732565b604051610260919061241a565b60405180910390f35b610283600480360381019061027e9190612296565b6107e9565b604051610290919061241a565b60405180910390f35b6102a1610827565b6040516102ae919061223e565b60405180910390f35b6102d160048036038101906102cc9190612461565b6108b9565b005b6102ed60048036038101906102e891906125d6565b6108cf565b005b61030960048036038101906103049190612296565b610931565b6040516103169190612304565b60405180910390f35b61033960048036038101906103349190612296565b6109b6565b604051610346919061223e565b60405180910390f35b610369600480360381019061036491906126fa565b610ac8565b005b61038560048036038101906103809190612783565b610af8565b005b6103a1600480360381019061039c91906127d6565b610c1b565b6040516103ae919061218a565b60405180910390f35b60007fad092b5c000000000000000000000000000000000000000000000000000000007bffffffffffffffffffffffffffffffffffffffffffffffffffffffff1916827bffffffffffffffffffffffffffffffffffffffffffffffffffffffff1916148061042a575061042982610caf565b5b9050919050565b60606000805461044090612845565b80601f016020809104026020016040519081016040528092919081815260200182805461046c90612845565b80156104b95780601f1061048e576101008083540402835291602001916104b9565b820191906000526020600020905b81548152906001019060200180831161049c57829003601f168201915b5050505050905090565b60006104ce82610d91565b6004600083815260200190815260200160002060009054906101000a900473ffffffffffffffffffffffffffffffffffffffff169050919050565b6000610514826106ac565b90508073ffffffffffffffffffffffffffffffffffffffff168373ffffffffffffffffffffffffffffffffffffffff1603610584576040517f08c379a000000000000000000000000000000000000000000000000000000000815260040161057b906128e8565b60405180910390fd5b8073ffffffffffffffffffffffffffffffffffffffff166105a3610ddc565b73ffffffffffffffffffffffffffffffffffffffff1614806105d257506105d1816105cc610ddc565b610c1b565b5b610611576040517f08c379a00000000000000000000000000000000000000000000000000000000081526004016106089061297a565b60405180910390fd5b61061b8383610de4565b505050565b61063161062b610ddc565b82610e9d565b610670576040517f08c379a000000000000000000000000000000000000000000000000000000000815260040161066790612a0c565b60405180910390fd5b61067b838383610f32565b505050565b61069b838383604051806020016040528060008152506108cf565b505050565b6106a98161122b565b50565b6000806106b88361127e565b9050600073ffffffffffffffffffffffffffffffffffffffff168173ffffffffffffffffffffffffffffffffffffffff1603610729576040517f08c379a000000000000000000000000000000000000000000000000000000000815260040161072090612a78565b60405180910390fd5b80915050919050565b60008073ffffffffffffffffffffffffffffffffffffffff168273ffffffffffffffffffffffffffffffffffffffff16036107a2576040517f08c379a000000000000000000000000000000000000000000000000000000000815260040161079990612b0a565b60405180910390fd5b600360008373ffffffffffffffffffffffffffffffffffffffff1673ffffffffffffffffffffffffffffffffffffffff168152602001908152602001600020549050919050565b60006007600083815260200190815260200160002060000160149054906101000a900467ffffffffffffffff1667ffffffffffffffff169050919050565b60606001805461083690612845565b80601f016020809104026020016040519081016040528092919081815260200182805461086290612845565b80156108af5780601f10610884576101008083540402835291602001916108af565b820191906000526020600020905b81548152906001019060200180831161089257829003601f168201915b5050505050905090565b6108cb6108c4610ddc565b83836112bb565b5050565b6108e06108da610ddc565b83610e9d565b61091f576040517f08c379a000000000000000000000000000000000000000000000000000000000815260040161091690612a0c565b60405180910390fd5b61092b84848484611427565b50505050565b6000426007600084815260200190815260200160002060000160149054906101000a900467ffffffffffffffff1667ffffffffffffffff16106109ac576007600083815260200190815260200160002060000160009054906101000a900473ffffffffffffffffffffffffffffffffffffffff1690506109b1565b600090505b919050565b60606109c182610d91565b60006006600084815260200190815260200160002080546109e190612845565b80601f0160208091040260200160405190810160405280929190818152602001828054610a0d90612845565b8015610a5a5780601f10610a2f57610100808354040283529160200191610a5a565b820191906000526020600020905b815481529060010190602001808311610a3d57829003601f168201915b505050505090506000610a6b611483565b90506000815103610a80578192505050610ac3565b600082511115610ab5578082604051602001610a9d929190612b66565b60405160208183030381529060405292505050610ac3565b610abe8461149a565b925050505b919050565b610ad26008611502565b6000610ade6008611518565b9050610aea3382611526565b610af48183611544565b5050565b610b023384610e9d565b610b41576040517f08c379a0000000000000000000000000000000000000000000000000000000008152600401610b3890612bfc565b60405180910390fd5b6000600760008581526020019081526020016000209050828160000160006101000a81548173ffffffffffffffffffffffffffffffffffffffff021916908373ffffffffffffffffffffffffffffffffffffffff160217905550818160000160146101000a81548167ffffffffffffffff021916908367ffffffffffffffff1602179055508273ffffffffffffffffffffffffffffffffffffffff16847f4e06b4e7000e659094299b3533b47b6aa8ad048e95e872d23d1f4ee55af89cfe84604051610c0d9190612c2b565b60405180910390a350505050565b6000600560008473ffffffffffffffffffffffffffffffffffffffff1673ffffffffffffffffffffffffffffffffffffffff16815260200190815260200160002060008373ffffffffffffffffffffffffffffffffffffffff1673ffffffffffffffffffffffffffffffffffffffff16815260200190815260200160002060009054906101000a900460ff16905092915050565b60007f80ac58cd000000000000000000000000000000000000000000000000000000007bffffffffffffffffffffffffffffffffffffffffffffffffffffffff1916827bffffffffffffffffffffffffffffffffffffffffffffffffffffffff19161480610d7a57507f5b5e139f000000000000000000000000000000000000000000000000000000007bffffffffffffffffffffffffffffffffffffffffffffffffffffffff1916827bffffffffffffffffffffffffffffffffffffffffffffffffffffffff1916145b80610d8a5750610d89826115b1565b5b9050919050565b610d9a8161161b565b610dd9576040517f08c379a0000000000000000000000000000000000000000000000000000000008152600401610dd090612a78565b60405180910390fd5b50565b600033905090565b816004600083815260200190815260200160002060006101000a81548173ffffffffffffffffffffffffffffffffffffffff021916908373ffffffffffffffffffffffffffffffffffffffff160217905550808273ffffffffffffffffffffffffffffffffffffffff16610e57836106ac565b73ffffffffffffffffffffffffffffffffffffffff167f8c5be1e5ebec7d5bd14f71427d1e84f3dd0314c0f7b2291e5b200ac8c7c3b92560405160405180910390a45050565b600080610ea9836106ac565b90508073ffffffffffffffffffffffffffffffffffffffff168473ffffffffffffffffffffffffffffffffffffffff161480610eeb5750610eea8185610c1b565b5b80610f2957508373ffffffffffffffffffffffffffffffffffffffff16610f11846104c3565b73ffffffffffffffffffffffffffffffffffffffff16145b91505092915050565b8273ffffffffffffffffffffffffffffffffffffffff16610f52826106ac565b73ffffffffffffffffffffffffffffffffffffffff1614610fa8576040517f08c379a0000000000000000000000000000000000000000000000000000000008152600401610f9f90612cb8565b60405180910390fd5b600073ffffffffffffffffffffffffffffffffffffffff168273ffffffffffffffffffffffffffffffffffffffff1603611017576040517f08c379a000000000000000000000000000000000000000000000000000000000815260040161100e90612d4a565b60405180910390fd5b611024838383600161165c565b8273ffffffffffffffffffffffffffffffffffffffff16611044826106ac565b73ffffffffffffffffffffffffffffffffffffffff161461109a576040517f08c379a000000000000000000000000000000000000000000000000000000000815260040161109190612cb8565b60405180910390fd5b6004600082815260200190815260200160002060006101000a81549073ffffffffffffffffffffffffffffffffffffffff02191690556001600360008573ffffffffffffffffffffffffffffffffffffffff1673ffffffffffffffffffffffffffffffffffffffff168152602001908152602001600020600082825403925050819055506001600360008473ffffffffffffffffffffffffffffffffffffffff1673ffffffffffffffffffffffffffffffffffffffff16815260200190815260200160002060008282540192505081905550816002600083815260200190815260200160002060006101000a81548173ffffffffffffffffffffffffffffffffffffffff021916908373ffffffffffffffffffffffffffffffffffffffff160217905550808273ffffffffffffffffffffffffffffffffffffffff168473ffffffffffffffffffffffffffffffffffffffff167fddf252ad1be2c89b69c2b068fc378daa952ba7f163c4a11628f55a4df523b3ef60405160405180910390a461122683838360016117bc565b505050565b611234816117c2565b600060066000838152602001908152602001600020805461125490612845565b90501461127b5760066000828152602001908152602001600020600061127a9190612079565b5b50565b60006002600083815260200190815260200160002060009054906101000a900473ffffffffffffffffffffffffffffffffffffffff169050919050565b8173ffffffffffffffffffffffffffffffffffffffff168373ffffffffffffffffffffffffffffffffffffffff1603611329576040517f08c379a000000000000000000000000000000000000000000000000000000000815260040161132090612db6565b60405180910390fd5b80600560008573ffffffffffffffffffffffffffffffffffffffff1673ffffffffffffffffffffffffffffffffffffffff16815260200190815260200160002060008473ffffffffffffffffffffffffffffffffffffffff1673ffffffffffffffffffffffffffffffffffffffff16815260200190815260200160002060006101000a81548160ff0219169083151502179055508173ffffffffffffffffffffffffffffffffffffffff168373ffffffffffffffffffffffffffffffffffffffff167f17307eab39ab6107e8899845ad3d59bd9653f200f220920489ca2b5937696c318360405161141a919061218a565b60405180910390a3505050565b611432848484610f32565b61143e84848484611910565b61147d576040517f08c379a000000000000000000000000000000000000000000000000000000000815260040161147490612e48565b60405180910390fd5b50505050565b606060405180602001604052806000815250905090565b60606114a582610d91565b60006114af611483565b905060008151116114cf57604051806020016040528060008152506114fa565b806114d984611a97565b6040516020016114ea929190612b66565b6040516020818303038152906040525b915050919050565b6001816000016000828254019250508190555050565b600081600001549050919050565b611540828260405180602001604052806000815250611b65565b5050565b61154d8261161b565b61158c576040517f08c379a000000000000000000000000000000000000000000000000000000000815260040161158390612eda565b60405180910390fd5b806006600084815260200190815260200160002090816115ac91906130a6565b505050565b60007f01ffc9a7000000000000000000000000000000000000000000000000000000007bffffffffffffffffffffffffffffffffffffffffffffffffffffffff1916827bffffffffffffffffffffffffffffffffffffffffffffffffffffffff1916149050919050565b60008073ffffffffffffffffffffffffffffffffffffffff1661163d8361127e565b73ffffffffffffffffffffffffffffffffffffffff1614159050919050565b61166884848484611bc0565b8273ffffffffffffffffffffffffffffffffffffffff168473ffffffffffffffffffffffffffffffffffffffff16141580156117075750600073ffffffffffffffffffffffffffffffffffffffff166007600084815260200190815260200160002060000160009054906101000a900473ffffffffffffffffffffffffffffffffffffffff1673ffffffffffffffffffffffffffffffffffffffff1614155b156117b65760076000838152602001908152602001600020600080820160006101000a81549073ffffffffffffffffffffffffffffffffffffffff02191690556000820160146101000a81549067ffffffffffffffff02191690555050600073ffffffffffffffffffffffffffffffffffffffff16827f4e06b4e7000e659094299b3533b47b6aa8ad048e95e872d23d1f4ee55af89cfe60006040516117ad91906131b3565b60405180910390a35b50505050565b50505050565b60006117cd826106ac565b90506117dd81600084600161165c565b6117e6826106ac565b90506004600083815260200190815260200160002060006101000a81549073ffffffffffffffffffffffffffffffffffffffff02191690556001600360008373ffffffffffffffffffffffffffffffffffffffff1673ffffffffffffffffffffffffffffffffffffffff168152602001908152602001600020600082825403925050819055506002600083815260200190815260200160002060006101000a81549073ffffffffffffffffffffffffffffffffffffffff021916905581600073ffffffffffffffffffffffffffffffffffffffff168273ffffffffffffffffffffffffffffffffffffffff167fddf252ad1be2c89b69c2b068fc378daa952ba7f163c4a11628f55a4df523b3ef60405160405180910390a461190c8160008460016117bc565b5050565b60006119318473ffffffffffffffffffffffffffffffffffffffff16611ce6565b15611a8a578373ffffffffffffffffffffffffffffffffffffffff1663150b7a0261195a610ddc565b8786866040518563ffffffff1660e01b815260040161197c9493929190613223565b6020604051808303816000875af19250505080156119b857506040513d601f19601f820116820180604052508101906119b59190613284565b60015b611a3a573d80600081146119e8576040519150601f19603f3d011682016040523d82523d6000602084013e6119ed565b606091505b506000815103611a32576040517f08c379a0000000000000000000000000000000000000000000000000000000008152600401611a2990612e48565b60405180910390fd5b805181602001fd5b63150b7a0260e01b7bffffffffffffffffffffffffffffffffffffffffffffffffffffffff1916817bffffffffffffffffffffffffffffffffffffffffffffffffffffffff191614915050611a8f565b600190505b949350505050565b606060006001611aa684611d09565b01905060008167ffffffffffffffff811115611ac557611ac46124ab565b5b6040519080825280601f01601f191660200182016040528015611af75781602001600182028036833780820191505090505b509050600082602001820190505b600115611b5a578080600190039150507f3031323334353637383961626364656600000000000000000000000000000000600a86061a8153600a8581611b4e57611b4d6132b1565b5b04945060008503611b05575b819350505050919050565b611b6f8383611e5c565b611b7c6000848484611910565b611bbb576040517f08c379a0000000000000000000000000000000000000000000000000000000008152600401611bb290612e48565b60405180910390fd5b505050565b6001811115611ce057600073ffffffffffffffffffffffffffffffffffffffff168473ffffffffffffffffffffffffffffffffffffffff1614611c545780600360008673ffffffffffffffffffffffffffffffffffffffff1673ffffffffffffffffffffffffffffffffffffffff1681526020019081526020016000206000828254611c4c919061330f565b925050819055505b600073ffffffffffffffffffffffffffffffffffffffff168373ffffffffffffffffffffffffffffffffffffffff1614611cdf5780600360008573ffffffffffffffffffffffffffffffffffffffff1673ffffffffffffffffffffffffffffffffffffffff1681526020019081526020016000206000828254611cd79190613343565b925050819055505b5b50505050565b6000808273ffffffffffffffffffffffffffffffffffffffff163b119050919050565b600080600090507a184f03e93ff9f4daa797ed6e38ed64bf6a1f0100000000000000008310611d67577a184f03e93ff9f4daa797ed6e38ed64bf6a1f0100000000000000008381611d5d57611d5c6132b1565b5b0492506040810190505b6d04ee2d6d415b85acef81000000008310611da4576d04ee2d6d415b85acef81000000008381611d9a57611d996132b1565b5b0492506020810190505b662386f26fc100008310611dd357662386f26fc100008381611dc957611dc86132b1565b5b0492506010810190505b6305f5e1008310611dfc576305f5e1008381611df257611df16132b1565b5b0492506008810190505b6127108310611e21576127108381611e1757611e166132b1565b5b0492506004810190505b60648310611e445760648381611e3a57611e396132b1565b5b0492506002810190505b600a8310611e53576001810190505b80915050919050565b600073ffffffffffffffffffffffffffffffffffffffff168273ffffffffffffffffffffffffffffffffffffffff1603611ecb576040517f08c379a0000000000000000000000000000000000000000000000000000000008152600401611ec2906133e5565b60405180910390fd5b611ed48161161b565b15611f14576040517f08c379a0000000000000000000000000000000000000000000000000000000008152600401611f0b90613451565b60405180910390fd5b611f2260008383600161165c565b611f2b8161161b565b15611f6b576040517f08c379a0000000000000000000000000000000000000000000000000000000008152600401611f6290613451565b60405180910390fd5b6001600360008473ffffffffffffffffffffffffffffffffffffffff1673ffffffffffffffffffffffffffffffffffffffff16815260200190815260200160002060008282540192505081905550816002600083815260200190815260200160002060006101000a81548173ffffffffffffffffffffffffffffffffffffffff021916908373ffffffffffffffffffffffffffffffffffffffff160217905550808273ffffffffffffffffffffffffffffffffffffffff16600073ffffffffffffffffffffffffffffffffffffffff167fddf252ad1be2c89b69c2b068fc378daa952ba7f163c4a11628f55a4df523b3ef60405160405180910390a46120756000838360016117bc565b5050565b50805461208590612845565b6000825580601f1061209757506120b6565b601f0160209004906000526020600020908101906120b591906120b9565b5b50565b5b808211156120d25760008160009055506001016120ba565b5090565b6000604051905090565b600080fd5b600080fd5b60007fffffffff0000000000000000000000000000000000000000000000000000000082169050919050565b61211f816120ea565b811461212a57600080fd5b50565b60008135905061213c81612116565b92915050565b600060208284031215612158576121576120e0565b5b60006121668482850161212d565b91505092915050565b60008115159050919050565b6121848161216f565b82525050565b600060208201905061219f600083018461217b565b92915050565b600081519050919050565b600082825260208201905092915050565b60005b838110156121df5780820151818401526020810190506121c4565b838111156121ee576000848401525b50505050565b6000601f19601f8301169050919050565b6000612210826121a5565b61221a81856121b0565b935061222a8185602086016121c1565b612233816121f4565b840191505092915050565b600060208201905081810360008301526122588184612205565b905092915050565b6000819050919050565b61227381612260565b811461227e57600080fd5b50565b6000813590506122908161226a565b92915050565b6000602082840312156122ac576122ab6120e0565b5b60006122ba84828501612281565b91505092915050565b600073ffffffffffffffffffffffffffffffffffffffff82169050919050565b60006122ee826122c3565b9050919050565b6122fe816122e3565b82525050565b600060208201905061231960008301846122f5565b92915050565b612328816122e3565b811461233357600080fd5b50565b6000813590506123458161231f565b92915050565b60008060408385031215612362576123616120e0565b5b600061237085828601612336565b925050602061238185828601612281565b9150509250929050565b6000806000606084860312156123a4576123a36120e0565b5b60006123b286828701612336565b93505060206123c386828701612336565b92505060406123d486828701612281565b9150509250925092565b6000602082840312156123f4576123f36120e0565b5b600061240284828501612336565b91505092915050565b61241481612260565b82525050565b600060208201905061242f600083018461240b565b92915050565b61243e8161216f565b811461244957600080fd5b50565b60008135905061245b81612435565b92915050565b60008060408385031215612478576124776120e0565b5b600061248685828601612336565b92505060206124978582860161244c565b9150509250929050565b600080fd5b600080fd5b7f4e487b7100000000000000000000000000000000000000000000000000000000600052604160045260246000fd5b6124e3826121f4565b810181811067ffffffffffffffff82111715612502576125016124ab565b5b80604052505050565b60006125156120d6565b905061252182826124da565b919050565b600067ffffffffffffffff821115612541576125406124ab565b5b61254a826121f4565b9050602081019050919050565b82818337600083830152505050565b600061257961257484612526565b61250b565b905082815260208101848484011115612595576125946124a6565b5b6125a0848285612557565b509392505050565b600082601f8301126125bd576125bc6124a1565b5b81356125cd848260208601612566565b91505092915050565b600080600080608085870312156125f0576125ef6120e0565b5b60006125fe87828801612336565b945050602061260f87828801612336565b935050604061262087828801612281565b925050606085013567ffffffffffffffff811115612641576126406120e5565b5b61264d878288016125a8565b91505092959194509250565b600067ffffffffffffffff821115612674576126736124ab565b5b61267d826121f4565b9050602081019050919050565b600061269d61269884612659565b61250b565b9050828152602081018484840111156126b9576126b86124a6565b5b6126c4848285612557565b509392505050565b600082601f8301126126e1576126e06124a1565b5b81356126f184826020860161268a565b91505092915050565b6000602082840312156127105761270f6120e0565b5b600082013567ffffffffffffffff81111561272e5761272d6120e5565b5b61273a848285016126cc565b91505092915050565b600067ffffffffffffffff82169050919050565b61276081612743565b811461276b57600080fd5b50565b60008135905061277d81612757565b92915050565b60008060006060848603121561279c5761279b6120e0565b5b60006127aa86828701612281565b93505060206127bb86828701612336565b92505060406127cc8682870161276e565b9150509250925092565b600080604083850312156127ed576127ec6120e0565b5b60006127fb85828601612336565b925050602061280c85828601612336565b9150509250929050565b7f4e487b7100000000000000000000000000000000000000000000000000000000600052602260045260246000fd5b6000600282049050600182168061285d57607f821691505b6020821081036128705761286f612816565b5b50919050565b7f4552433732313a20617070726f76616c20746f2063757272656e74206f776e6560008201527f7200000000000000000000000000000000000000000000000000000000000000602082015250565b60006128d26021836121b0565b91506128dd82612876565b604082019050919050565b60006020820190508181036000830152612901816128c5565b9050919050565b7f4552433732313a20617070726f76652063616c6c6572206973206e6f7420746f60008201527f6b656e206f776e6572206f7220617070726f76656420666f7220616c6c000000602082015250565b6000612964603d836121b0565b915061296f82612908565b604082019050919050565b6000602082019050818103600083015261299381612957565b9050919050565b7f4552433732313a2063616c6c6572206973206e6f7420746f6b656e206f776e6560008201527f72206f7220617070726f76656400000000000000000000000000000000000000602082015250565b60006129f6602d836121b0565b9150612a018261299a565b604082019050919050565b60006020820190508181036000830152612a25816129e9565b9050919050565b7f4552433732313a20696e76616c696420746f6b656e2049440000000000000000600082015250565b6000612a626018836121b0565b9150612a6d82612a2c565b602082019050919050565b60006020820190508181036000830152612a9181612a55565b9050919050565b7f4552433732313a2061646472657373207a65726f206973206e6f74206120766160008201527f6c6964206f776e65720000000000000000000000000000000000000000000000602082015250565b6000612af46029836121b0565b9150612aff82612a98565b604082019050919050565b60006020820190508181036000830152612b2381612ae7565b9050919050565b600081905092915050565b6000612b40826121a5565b612b4a8185612b2a565b9350612b5a8185602086016121c1565b80840191505092915050565b6000612b728285612b35565b9150612b7e8284612b35565b91508190509392505050565b7f4552433732313a207472616e736665722063616c6c6572206973206e6f74206f60008201527f776e6572206e6f7220617070726f766564000000000000000000000000000000602082015250565b6000612be66031836121b0565b9150612bf182612b8a565b604082019050919050565b60006020820190508181036000830152612c1581612bd9565b9050919050565b612c2581612743565b82525050565b6000602082019050612c406000830184612c1c565b92915050565b7f4552433732313a207472616e736665722066726f6d20696e636f72726563742060008201527f6f776e6572000000000000000000000000000000000000000000000000000000602082015250565b6000612ca26025836121b0565b9150612cad82612c46565b604082019050919050565b60006020820190508181036000830152612cd181612c95565b9050919050565b7f4552433732313a207472616e7366657220746f20746865207a65726f2061646460008201527f7265737300000000000000000000000000000000000000000000000000000000602082015250565b6000612d346024836121b0565b9150612d3f82612cd8565b604082019050919050565b60006020820190508181036000830152612d6381612d27565b9050919050565b7f4552433732313a20617070726f766520746f2063616c6c657200000000000000600082015250565b6000612da06019836121b0565b9150612dab82612d6a565b602082019050919050565b60006020820190508181036000830152612dcf81612d93565b9050919050565b7f4552433732313a207472616e7366657220746f206e6f6e20455243373231526560008201527f63656976657220696d706c656d656e7465720000000000000000000000000000602082015250565b6000612e326032836121b0565b9150612e3d82612dd6565b604082019050919050565b60006020820190508181036000830152612e6181612e25565b9050919050565b7f45524337323155524953746f726167653a2055524920736574206f66206e6f6e60008201527f6578697374656e7420746f6b656e000000000000000000000000000000000000602082015250565b6000612ec4602e836121b0565b9150612ecf82612e68565b604082019050919050565b60006020820190508181036000830152612ef381612eb7565b9050919050565b60008190508160005260206000209050919050565b60006020601f8301049050919050565b600082821b905092915050565b600060088302612f5c7fffffffffffffffffffffffffffffffffffffffffffffffffffffffffffffffff82612f1f565b612f668683612f1f565b95508019841693508086168417925050509392505050565b6000819050919050565b6000612fa3612f9e612f9984612260565b612f7e565b612260565b9050919050565b6000819050919050565b612fbd83612f88565b612fd1612fc982612faa565b848454612f2c565b825550505050565b600090565b612fe6612fd9565b612ff1818484612fb4565b505050565b5b818110156130155761300a600082612fde565b600181019050612ff7565b5050565b601f82111561305a5761302b81612efa565b61303484612f0f565b81016020851015613043578190505b61305761304f85612f0f565b830182612ff6565b50505b505050565b600082821c905092915050565b600061307d6000198460080261305f565b1980831691505092915050565b6000613096838361306c565b9150826002028217905092915050565b6130af826121a5565b67ffffffffffffffff8111156130c8576130c76124ab565b5b6130d28254612845565b6130dd828285613019565b600060209050601f83116001811461311057600084156130fe578287015190505b613108858261308a565b865550613170565b601f19841661311e86612efa565b60005b8281101561314657848901518255600182019150602085019450602081019050613121565b86831015613163578489015161315f601f89168261306c565b8355505b6001600288020188555050505b505050505050565b6000819050919050565b600061319d61319861319384613178565b612f7e565b612743565b9050919050565b6131ad81613182565b82525050565b60006020820190506131c860008301846131a4565b92915050565b600081519050919050565b600082825260208201905092915050565b60006131f5826131ce565b6131ff81856131d9565b935061320f8185602086016121c1565b613218816121f4565b840191505092915050565b600060808201905061323860008301876122f5565b61324560208301866122f5565b613252604083018561240b565b818103606083015261326481846131ea565b905095945050505050565b60008151905061327e81612116565b92915050565b60006020828403121561329a576132996120e0565b5b60006132a88482850161326f565b91505092915050565b7f4e487b7100000000000000000000000000000000000000000000000000000000600052601260045260246000fd5b7f4e487b7100000000000000000000000000000000000000000000000000000000600052601160045260246000fd5b600061331a82612260565b915061332583612260565b925082821015613338576133376132e0565b5b828203905092915050565b600061334e82612260565b915061335983612260565b9250827fffffffffffffffffffffffffffffffffffffffffffffffffffffffffffffffff0382111561338e5761338d6132e0565b5b828201905092915050565b7f4552433732313a206d696e7420746f20746865207a65726f2061646472657373600082015250565b60006133cf6020836121b0565b91506133da82613399565b602082019050919050565b600060208201905081810360008301526133fe816133c2565b9050919050565b7f4552433732313a20746f6b656e20616c7265616479206d696e74656400000000600082015250565b600061343b601c836121b0565b915061344682613405565b602082019050919050565b6000602082019050818103600083015261346a8161342e565b905091905056fea26469706673582212208422930ee9a81685631d8aa719490f72909a4d5beab76a6c0459539af99d61ed64736f6c634300080f0033",
  "immutableReferences": {},
  "source": "// SPDX-License-Identifier: MIT\npragma solidity >=0.4.22 <0.9.0;\n\nimport \"./ERC4907.sol\";\nimport \"@openzeppelin/contracts/utils/Counters.sol\";\n\ncontract RentableMonkey is ERC4907 {\n    using Counters for Counters.Counter;\n    Counters.Counter private _tokenIds;\n\n    constructor() ERC4907(\"RentableMonkey\", \"RM\") {}\n\n    function mint(string memory _tokenURI) public {\n        _tokenIds.increment();\n        uint256 newTokenId = _tokenIds.current();\n        _safeMint(msg.sender, newTokenId);\n        _setTokenURI(newTokenId, _tokenURI);\n    }\n\n    function burn(uint256 tokenId) public {\n        _burn(tokenId);\n    }\n}\n",
  "sourcePath": "/Users/abhinavraj/Documents/code/Learning/truffle/Rentable NFT/rentable-nfts/contracts/RentableMonkey.sol",
  "compiler": {
    "name": "solc",
    "version": "0.8.15+commit.e14f2714.Emscripten.clang"
  },
  "schemaVersion": "3.4.16",
  "updatedAt": "2024-06-08T06:08:44.686Z",
  "networkType": "ethereum",
  "devdoc": {
    "kind": "dev",
    "methods": {
      "approve(address,uint256)": {
        "details": "See {IERC721-approve}."
      },
      "balanceOf(address)": {
        "details": "See {IERC721-balanceOf}."
      },
      "getApproved(uint256)": {
        "details": "See {IERC721-getApproved}."
      },
      "isApprovedForAll(address,address)": {
        "details": "See {IERC721-isApprovedForAll}."
      },
      "name()": {
        "details": "See {IERC721Metadata-name}."
      },
      "ownerOf(uint256)": {
        "details": "See {IERC721-ownerOf}."
      },
      "safeTransferFrom(address,address,uint256)": {
        "details": "See {IERC721-safeTransferFrom}."
      },
      "safeTransferFrom(address,address,uint256,bytes)": {
        "details": "See {IERC721-safeTransferFrom}."
      },
      "setApprovalForAll(address,bool)": {
        "details": "See {IERC721-setApprovalForAll}."
      },
      "setUser(uint256,address,uint64)": {
        "details": "The zero address indicates there is no user Throws if `tokenId` is not valid NFT",
        "params": {
          "expires": "UNIX timestamp, The new user could use the NFT before expires",
          "user": "The new user of the NFT"
        }
      },
      "supportsInterface(bytes4)": {
        "details": "See {IERC165-supportsInterface}."
      },
      "symbol()": {
        "details": "See {IERC721Metadata-symbol}."
      },
      "tokenURI(uint256)": {
        "details": "See {IERC721Metadata-tokenURI}."
      },
      "transferFrom(address,address,uint256)": {
        "details": "See {IERC721-transferFrom}."
      },
      "userExpires(uint256)": {
        "details": "The zero value indicates that there is no user",
        "params": {
          "tokenId": "The NFT to get the user expires for"
        },
        "returns": {
          "_0": "The user expires for this NFT"
        }
      },
      "userOf(uint256)": {
        "details": "The zero address indicates that there is no user or the user is expired",
        "params": {
          "tokenId": "The NFT to get the user address for"
        },
        "returns": {
          "_0": "The user address for this NFT"
        }
      }
    },
    "version": 1
  },
  "userdoc": {
    "events": {
      "UpdateUser(uint256,address,uint64)": {
        "notice": "Emitted when the `user` of an NFT or the `expires` of the `user` is changed The zero address for user indicates that there is no user address"
      }
    },
    "kind": "user",
    "methods": {
      "setUser(uint256,address,uint64)": {
        "notice": "set the user and expires of a NFT"
      },
      "userExpires(uint256)": {
        "notice": "Get the user expires of an NFT"
      },
      "userOf(uint256)": {
        "notice": "Get the user address of an NFT"
      }
    },
    "version": 1
  }
}